{
  "contractName": "Erc20",
  "abi": [
    {
      "inputs": [],
      "stateMutability": "nonpayable",
      "type": "constructor"
    },
    {
      "anonymous": false,
      "inputs": [
        {
          "indexed": true,
          "internalType": "address",
          "name": "_owner",
          "type": "address"
        },
        {
          "indexed": true,
          "internalType": "address",
          "name": "_spender",
          "type": "address"
        },
        {
          "indexed": false,
          "internalType": "uint256",
          "name": "_value",
          "type": "uint256"
        }
      ],
      "name": "Approval",
      "type": "event"
    },
    {
      "anonymous": false,
      "inputs": [
        {
          "indexed": true,
          "internalType": "address",
          "name": "_from",
          "type": "address"
        },
        {
          "indexed": true,
          "internalType": "address",
          "name": "_to",
          "type": "address"
        },
        {
          "indexed": false,
          "internalType": "uint256",
          "name": "_value",
          "type": "uint256"
        }
      ],
      "name": "Transfer",
      "type": "event"
    },
    {
      "inputs": [
        {
          "internalType": "address",
          "name": "",
          "type": "address"
        },
        {
          "internalType": "address",
          "name": "",
          "type": "address"
        }
      ],
      "name": "allowed",
      "outputs": [
        {
          "internalType": "uint256",
          "name": "",
          "type": "uint256"
        }
      ],
      "stateMutability": "view",
      "type": "function",
      "constant": true
    },
    {
      "inputs": [],
      "name": "decimal",
      "outputs": [
        {
          "internalType": "uint256",
          "name": "",
          "type": "uint256"
        }
      ],
      "stateMutability": "view",
      "type": "function",
      "constant": true
    },
    {
      "inputs": [],
      "name": "name",
      "outputs": [
        {
          "internalType": "string",
          "name": "",
          "type": "string"
        }
      ],
      "stateMutability": "view",
      "type": "function",
      "constant": true
    },
    {
      "inputs": [],
      "name": "symbol",
      "outputs": [
        {
          "internalType": "string",
          "name": "",
          "type": "string"
        }
      ],
      "stateMutability": "view",
      "type": "function",
      "constant": true
    },
    {
      "inputs": [
        {
          "internalType": "address",
          "name": "",
          "type": "address"
        }
      ],
      "name": "tokenBalances",
      "outputs": [
        {
          "internalType": "uint256",
          "name": "",
          "type": "uint256"
        }
      ],
      "stateMutability": "view",
      "type": "function",
      "constant": true
    },
    {
      "inputs": [],
      "name": "totalSupply",
      "outputs": [
        {
          "internalType": "uint256",
          "name": "",
          "type": "uint256"
        }
      ],
      "stateMutability": "view",
      "type": "function",
      "constant": true
    },
    {
      "inputs": [
        {
          "internalType": "address",
          "name": "_owner",
          "type": "address"
        }
      ],
      "name": "balanceOf",
      "outputs": [
        {
          "internalType": "uint256",
          "name": "balance",
          "type": "uint256"
        }
      ],
      "stateMutability": "view",
      "type": "function",
      "constant": true
    },
    {
      "inputs": [
        {
          "internalType": "address",
          "name": "_to",
          "type": "address"
        },
        {
          "internalType": "uint256",
          "name": "_value",
          "type": "uint256"
        }
      ],
      "name": "transfer",
      "outputs": [
        {
          "internalType": "bool",
          "name": "accomplish",
          "type": "bool"
        }
      ],
      "stateMutability": "nonpayable",
      "type": "function"
    },
    {
      "inputs": [
        {
          "internalType": "address",
          "name": "_from",
          "type": "address"
        },
        {
          "internalType": "address",
          "name": "_to",
          "type": "address"
        },
        {
          "internalType": "uint256",
          "name": "_value",
          "type": "uint256"
        }
      ],
      "name": "transferFrom",
      "outputs": [
        {
          "internalType": "bool",
          "name": "accomplish",
          "type": "bool"
        }
      ],
      "stateMutability": "nonpayable",
      "type": "function"
    },
    {
      "inputs": [
        {
          "internalType": "address",
          "name": "_spender",
          "type": "address"
        },
        {
          "internalType": "uint256",
          "name": "_value",
          "type": "uint256"
        }
      ],
      "name": "approve",
      "outputs": [
        {
          "internalType": "bool",
          "name": "accomplish",
          "type": "bool"
        }
      ],
      "stateMutability": "nonpayable",
      "type": "function"
    },
    {
      "inputs": [
        {
          "internalType": "address",
          "name": "_owner",
          "type": "address"
        },
        {
          "internalType": "address",
          "name": "_spender",
          "type": "address"
        }
      ],
      "name": "allowance",
      "outputs": [
        {
          "internalType": "uint256",
          "name": "remaining",
          "type": "uint256"
        }
      ],
      "stateMutability": "view",
      "type": "function",
      "constant": true
    }
  ],
  "bytecode": "0x60806040523480156200001157600080fd5b506040518060400160405280600b81526020017f45524332305f746f6b656e0000000000000000000000000000000000000000008152506000908162000058919062000372565b506040518060400160405280600281526020017f4554000000000000000000000000000000000000000000000000000000000000815250600190816200009f919062000372565b5064e8d4a51000600281905550600254600460003373ffffffffffffffffffffffffffffffffffffffff1673ffffffffffffffffffffffffffffffffffffffff1681526020019081526020016000208190555062000459565b600081519050919050565b7f4e487b7100000000000000000000000000000000000000000000000000000000600052604160045260246000fd5b7f4e487b7100000000000000000000000000000000000000000000000000000000600052602260045260246000fd5b600060028204905060018216806200017a57607f821691505b60208210810362000190576200018f62000132565b5b50919050565b60008190508160005260206000209050919050565b60006020601f8301049050919050565b600082821b905092915050565b600060088302620001fa7fffffffffffffffffffffffffffffffffffffffffffffffffffffffffffffffff82620001bb565b620002068683620001bb565b95508019841693508086168417925050509392505050565b6000819050919050565b6000819050919050565b6000620002536200024d62000247846200021e565b62000228565b6200021e565b9050919050565b6000819050919050565b6200026f8362000232565b620002876200027e826200025a565b848454620001c8565b825550505050565b600090565b6200029e6200028f565b620002ab81848462000264565b505050565b5b81811015620002d357620002c760008262000294565b600181019050620002b1565b5050565b601f8211156200032257620002ec8162000196565b620002f784620001ab565b8101602085101562000307578190505b6200031f6200031685620001ab565b830182620002b0565b50505b505050565b600082821c905092915050565b6000620003476000198460080262000327565b1980831691505092915050565b600062000362838362000334565b9150826002028217905092915050565b6200037d82620000f8565b67ffffffffffffffff81111562000399576200039862000103565b5b620003a5825462000161565b620003b2828285620002d7565b600060209050601f831160018114620003ea5760008415620003d5578287015190505b620003e1858262000354565b86555062000451565b601f198416620003fa8662000196565b60005b828110156200042457848901518255600182019150602085019450602081019050620003fd565b8683101562000444578489015162000440601f89168262000334565b8355505b6001600288020188555050505b505050505050565b610e1a80620004696000396000f3fe608060405234801561001057600080fd5b50600436106100a95760003560e01c80635c658165116100715780635c6581651461017a57806370a08231146101aa57806376809ce3146101da57806395d89b41146101f8578063a9059cbb14610216578063dd62ed3e14610246576100a9565b806306fdde03146100ae578063095ea7b3146100cc57806318160ddd146100fc57806323b872dd1461011a578063523fba7f1461014a575b600080fd5b6100b6610276565b6040516100c391906109fa565b60405180910390f35b6100e660048036038101906100e19190610ab5565b610304565b6040516100f39190610b10565b60405180910390f35b610104610478565b6040516101119190610b3a565b60405180910390f35b610134600480360381019061012f9190610b55565b61047e565b6040516101419190610b10565b60405180910390f35b610164600480360381019061015f9190610ba8565b610660565b6040516101719190610b3a565b60405180910390f35b610194600480360381019061018f9190610bd5565b610678565b6040516101a19190610b3a565b60405180910390f35b6101c460048036038101906101bf9190610ba8565b61069d565b6040516101d19190610b3a565b60405180910390f35b6101e26106e6565b6040516101ef9190610b3a565b60405180910390f35b6102006106ec565b60405161020d91906109fa565b60405180910390f35b610230600480360381019061022b9190610ab5565b61077a565b60405161023d9190610b10565b60405180910390f35b610260600480360381019061025b9190610bd5565b6108e3565b60405161026d9190610b3a565b60405180910390f35b6000805461028390610c44565b80601f01602080910402602001604051908101604052809291908181526020018280546102af90610c44565b80156102fc5780601f106102d1576101008083540402835291602001916102fc565b820191906000526020600020905b8154815290600101906020018083116102df57829003601f168201915b505050505081565b600081600460003373ffffffffffffffffffffffffffffffffffffffff1673ffffffffffffffffffffffffffffffffffffffff168152602001908152602001600020541015610388576040517f08c379a000000000000000000000000000000000000000000000000000000000815260040161037f90610cc1565b60405180910390fd5b81600560003373ffffffffffffffffffffffffffffffffffffffff1673ffffffffffffffffffffffffffffffffffffffff16815260200190815260200160002060008573ffffffffffffffffffffffffffffffffffffffff1673ffffffffffffffffffffffffffffffffffffffff168152602001908152602001600020819055508273ffffffffffffffffffffffffffffffffffffffff163373ffffffffffffffffffffffffffffffffffffffff167f8c5be1e5ebec7d5bd14f71427d1e84f3dd0314c0f7b2291e5b200ac8c7c3b925846040516104669190610b3a565b60405180910390a36001905092915050565b60025481565b600080600560008673ffffffffffffffffffffffffffffffffffffffff1673ffffffffffffffffffffffffffffffffffffffff16815260200190815260200160002060003373ffffffffffffffffffffffffffffffffffffffff1673ffffffffffffffffffffffffffffffffffffffff16815260200190815260200160002054905082811015610543576040517f08c379a000000000000000000000000000000000000000000000000000000000815260040161053a90610d2d565b60405180910390fd5b82600460008773ffffffffffffffffffffffffffffffffffffffff1673ffffffffffffffffffffffffffffffffffffffff16815260200190815260200160002060008282546105929190610d7c565b9250508190555082600460008673ffffffffffffffffffffffffffffffffffffffff1673ffffffffffffffffffffffffffffffffffffffff16815260200190815260200160002060008282546105e89190610db0565b925050819055508373ffffffffffffffffffffffffffffffffffffffff168573ffffffffffffffffffffffffffffffffffffffff167fddf252ad1be2c89b69c2b068fc378daa952ba7f163c4a11628f55a4df523b3ef8560405161064c9190610b3a565b60405180910390a360019150509392505050565b60046020528060005260406000206000915090505481565b6005602052816000526040600020602052806000526040600020600091509150505481565b6000600460008373ffffffffffffffffffffffffffffffffffffffff1673ffffffffffffffffffffffffffffffffffffffff168152602001908152602001600020549050919050565b60035481565b600180546106f990610c44565b80601f016020809104026020016040519081016040528092919081815260200182805461072590610c44565b80156107725780601f1061074757610100808354040283529160200191610772565b820191906000526020600020905b81548152906001019060200180831161075557829003601f168201915b505050505081565b600081600460003373ffffffffffffffffffffffffffffffffffffffff1673ffffffffffffffffffffffffffffffffffffffff1681526020019081526020016000205410156107c857600080fd5b81600460003373ffffffffffffffffffffffffffffffffffffffff1673ffffffffffffffffffffffffffffffffffffffff16815260200190815260200160002060008282546108179190610d7c565b9250508190555081600460008573ffffffffffffffffffffffffffffffffffffffff1673ffffffffffffffffffffffffffffffffffffffff168152602001908152602001600020600082825461086d9190610db0565b925050819055508273ffffffffffffffffffffffffffffffffffffffff163373ffffffffffffffffffffffffffffffffffffffff167fddf252ad1be2c89b69c2b068fc378daa952ba7f163c4a11628f55a4df523b3ef846040516108d19190610b3a565b60405180910390a36001905092915050565b6000600560008473ffffffffffffffffffffffffffffffffffffffff1673ffffffffffffffffffffffffffffffffffffffff16815260200190815260200160002060008373ffffffffffffffffffffffffffffffffffffffff1673ffffffffffffffffffffffffffffffffffffffff16815260200190815260200160002054905092915050565b600081519050919050565b600082825260208201905092915050565b60005b838110156109a4578082015181840152602081019050610989565b60008484015250505050565b6000601f19601f8301169050919050565b60006109cc8261096a565b6109d68185610975565b93506109e6818560208601610986565b6109ef816109b0565b840191505092915050565b60006020820190508181036000830152610a1481846109c1565b905092915050565b600080fd5b600073ffffffffffffffffffffffffffffffffffffffff82169050919050565b6000610a4c82610a21565b9050919050565b610a5c81610a41565b8114610a6757600080fd5b50565b600081359050610a7981610a53565b92915050565b6000819050919050565b610a9281610a7f565b8114610a9d57600080fd5b50565b600081359050610aaf81610a89565b92915050565b60008060408385031215610acc57610acb610a1c565b5b6000610ada85828601610a6a565b9250506020610aeb85828601610aa0565b9150509250929050565b60008115159050919050565b610b0a81610af5565b82525050565b6000602082019050610b256000830184610b01565b92915050565b610b3481610a7f565b82525050565b6000602082019050610b4f6000830184610b2b565b92915050565b600080600060608486031215610b6e57610b6d610a1c565b5b6000610b7c86828701610a6a565b9350506020610b8d86828701610a6a565b9250506040610b9e86828701610aa0565b9150509250925092565b600060208284031215610bbe57610bbd610a1c565b5b6000610bcc84828501610a6a565b91505092915050565b60008060408385031215610bec57610beb610a1c565b5b6000610bfa85828601610a6a565b9250506020610c0b85828601610a6a565b9150509250929050565b7f4e487b7100000000000000000000000000000000000000000000000000000000600052602260045260246000fd5b60006002820490506001821680610c5c57607f821691505b602082108103610c6f57610c6e610c15565b5b50919050565b7f696e656666696369656e7420616d6f756e740000000000000000000000000000600082015250565b6000610cab601283610975565b9150610cb682610c75565b602082019050919050565b60006020820190508181036000830152610cda81610c9e565b9050919050565b7f696e73756666696369656e7420616d6f756e7400000000000000000000000000600082015250565b6000610d17601383610975565b9150610d2282610ce1565b602082019050919050565b60006020820190508181036000830152610d4681610d0a565b9050919050565b7f4e487b7100000000000000000000000000000000000000000000000000000000600052601160045260246000fd5b6000610d8782610a7f565b9150610d9283610a7f565b9250828203905081811115610daa57610da9610d4d565b5b92915050565b6000610dbb82610a7f565b9150610dc683610a7f565b9250828201905080821115610dde57610ddd610d4d565b5b9291505056fea2646970667358221220e42759f42f1860b35b51fc12a76e9212d949835039399b220829a79d945a605364736f6c63430008100033",
  "immutableReferences": {},
  "source": "// SPDX-License-Identifier: GPL-3.0\r\n\r\npragma solidity >=0.8.16;\r\n\r\ncontract Erc20 {\r\n    string public name;\r\n    string public symbol;\r\n    uint256 public totalSupply;\r\n    uint256 public decimal;\r\n    mapping(address => uint256) public tokenBalances;\r\n    mapping(address => mapping(address => uint256)) public allowed;\r\n\r\n    event Transfer(address indexed _from, address indexed _to, uint256 _value);\r\n    event Approval(\r\n        address indexed _owner,\r\n        address indexed _spender,\r\n        uint256 _value\r\n    );\r\n\r\n    constructor() {\r\n        name = \"ERC20_token\";\r\n        symbol = \"ET\";\r\n        totalSupply = 1000000000000;\r\n        tokenBalances[msg.sender] = totalSupply;\r\n    }\r\n\r\n    function balanceOf(address _owner) public view returns (uint256 balance) {\r\n        return tokenBalances[_owner];\r\n    }\r\n\r\n    function transfer(address _to, uint256 _value)\r\n        public\r\n        returns (bool accomplish)\r\n    {\r\n        require(tokenBalances[msg.sender] >= _value);\r\n        tokenBalances[msg.sender] -= _value;\r\n        tokenBalances[_to] += _value;\r\n        emit Transfer(msg.sender, _to, _value);\r\n        return true;\r\n    }\r\n\r\n    function transferFrom(\r\n        address _from,\r\n        address _to,\r\n        uint256 _value\r\n    ) public returns (bool accomplish) {\r\n        uint256 allowedBal = allowed[_from][msg.sender];\r\n        require(allowedBal >= _value, \"insufficient amount\");\r\n        tokenBalances[_from] -= _value;\r\n        tokenBalances[_to] += _value;\r\n        emit Transfer(_from, _to, _value);\r\n        return true;\r\n    }\r\n\r\n    function approve(address _spender, uint256 _value)\r\n        public\r\n        returns (bool accomplish)\r\n    {\r\n        //here we use mapping\r\n        require(tokenBalances[msg.sender] >= _value, \"inefficient amount\");\r\n        allowed[msg.sender][_spender] = _value;\r\n        emit Approval(msg.sender, _spender, _value);\r\n        return true;\r\n    }\r\n\r\n    function allowance(address _owner, address _spender)\r\n        public\r\n        view\r\n        returns (uint256 remaining)\r\n    {\r\n        return allowed[_owner][_spender];\r\n    }\r\n}\r\n",
  "sourcePath": "C:\\Users\\jayan\\Desktop\\Erc-token\\client\\Smart_contracts\\contracts\\Erc20.sol",
  "compiler": {
    "name": "solc",
    "version": "0.8.16+commit.07a7930e.Emscripten.clang"
  },
  "schemaVersion": "3.4.9",
  "updatedAt": "2022-08-26T09:47:15.168Z",
  "networkType": "ethereum",
  "devdoc": {
    "kind": "dev",
    "methods": {},
    "version": 1
  },
  "userdoc": {
    "kind": "user",
    "methods": {},
    "version": 1
  }
}